{
	"contracts/level3.sol": {
		"level3": {
			"abi": [
				{
					"inputs": [],
					"stateMutability": "nonpayable",
					"type": "constructor"
				},
				{
					"inputs": [],
					"name": "consecutiveWins",
					"outputs": [
						{
							"internalType": "uint256",
							"name": "",
							"type": "uint256"
						}
					],
					"stateMutability": "view",
					"type": "function"
				},
				{
					"inputs": [],
					"name": "surface",
					"outputs": [
						{
							"internalType": "contract ICoinFlip",
							"name": "",
							"type": "address"
						}
					],
					"stateMutability": "view",
					"type": "function"
				},
				{
					"inputs": [],
					"name": "win",
					"outputs": [],
					"stateMutability": "payable",
					"type": "function"
				},
				{
					"stateMutability": "payable",
					"type": "receive"
				}
			],
			"devdoc": {
				"kind": "dev",
				"methods": {},
				"version": 1
			},
			"evm": {
				"assembly": "    /* \"contracts/level3.sol\":171:814  contract level3 {\r... */\n  mstore(0x40, 0x80)\n    /* \"contracts/level3.sol\":316:393  57896044618658097711785492504343953926634992332820282019728792003956564819968 */\n  0x8000000000000000000000000000000000000000000000000000000000000000\n    /* \"contracts/level3.sol\":299:393  uint256 FACTOR = 57896044618658097711785492504343953926634992332820282019728792003956564819968 */\n  0x02\n  sstore\n    /* \"contracts/level3.sol\":402:497  constructor(){\r... */\n  callvalue\n  dup1\n  iszero\n  tag_1\n  jumpi\n  0x00\n  dup1\n  revert\ntag_1:\n  pop\n    /* \"contracts/level3.sol\":446:488  0x96E35B7e384D933450272F1C7b34a169B0763b1C */\n  0x96e35b7e384d933450272f1c7b34a169b0763b1c\n    /* \"contracts/level3.sol\":426:433  surface */\n  0x00\n  dup1\n    /* \"contracts/level3.sol\":426:489  surface = ICoinFlip(0x96E35B7e384D933450272F1C7b34a169B0763b1C) */\n  0x0100\n  exp\n  dup2\n  sload\n  dup2\n  0xffffffffffffffffffffffffffffffffffffffff\n  mul\n  not\n  and\n  swap1\n  dup4\n  0xffffffffffffffffffffffffffffffffffffffff\n  and\n  mul\n  or\n  swap1\n  sstore\n  pop\n    /* \"contracts/level3.sol\":171:814  contract level3 {\r... */\n  dataSize(sub_0)\n  dup1\n  dataOffset(sub_0)\n  0x00\n  codecopy\n  0x00\n  return\nstop\n\nsub_0: assembly {\n        /* \"contracts/level3.sol\":171:814  contract level3 {\r... */\n      mstore(0x40, 0x80)\n      jumpi(tag_1, lt(calldatasize, 0x04))\n      shr(0xe0, calldataload(0x00))\n      dup1\n      0x0e94ba83\n      eq\n      tag_3\n      jumpi\n      dup1\n      0x473ca96c\n      eq\n      tag_4\n      jumpi\n      dup1\n      0xe6f334d7\n      eq\n      tag_5\n      jumpi\n      jump(tag_2)\n    tag_1:\n      jumpi(tag_2, calldatasize)\n      stop\n    tag_2:\n      0x00\n      dup1\n      revert\n        /* \"contracts/level3.sol\":196:220  ICoinFlip public surface */\n    tag_3:\n      callvalue\n      dup1\n      iszero\n      tag_8\n      jumpi\n      0x00\n      dup1\n      revert\n    tag_8:\n      pop\n      tag_9\n      tag_10\n      jump\t// in\n    tag_9:\n      mload(0x40)\n      tag_11\n      swap2\n      swap1\n      tag_12\n      jump\t// in\n    tag_11:\n      mload(0x40)\n      dup1\n      swap2\n      sub\n      swap1\n      return\n        /* \"contracts/level3.sol\":507:764  function win() external payable {\r... */\n    tag_4:\n      tag_13\n      tag_14\n      jump\t// in\n    tag_13:\n      stop\n        /* \"contracts/level3.sol\":262:292  uint256 public consecutiveWins */\n    tag_5:\n      callvalue\n      dup1\n      iszero\n      tag_15\n      jumpi\n      0x00\n      dup1\n      revert\n    tag_15:\n      pop\n      tag_16\n      tag_17\n      jump\t// in\n    tag_16:\n      mload(0x40)\n      tag_18\n      swap2\n      swap1\n      tag_19\n      jump\t// in\n    tag_18:\n      mload(0x40)\n      dup1\n      swap2\n      sub\n      swap1\n      return\n        /* \"contracts/level3.sol\":196:220  ICoinFlip public surface */\n    tag_10:\n      0x00\n      dup1\n      sload\n      swap1\n      0x0100\n      exp\n      swap1\n      div\n      0xffffffffffffffffffffffffffffffffffffffff\n      and\n      dup2\n      jump\t// out\n        /* \"contracts/level3.sol\":507:764  function win() external payable {\r... */\n    tag_14:\n        /* \"contracts/level3.sol\":550:568  uint256 blockValue */\n      0x00\n        /* \"contracts/level3.sol\":589:608  block.number.sub(1) */\n      tag_21\n        /* \"contracts/level3.sol\":606:607  1 */\n      0x01\n        /* \"contracts/level3.sol\":589:601  block.number */\n      number\n        /* \"contracts/level3.sol\":589:605  block.number.sub */\n      tag_22\n      swap1\n        /* \"contracts/level3.sol\":589:608  block.number.sub(1) */\n      swap2\n      swap1\n      0xffffffff\n      and\n      jump\t// in\n    tag_21:\n        /* \"contracts/level3.sol\":579:609  blockhash(block.number.sub(1)) */\n      blockhash\n        /* \"contracts/level3.sol\":571:610  uint256(blockhash(block.number.sub(1))) */\n      0x00\n      shr\n        /* \"contracts/level3.sol\":550:610  uint256 blockValue = uint256(blockhash(block.number.sub(1))) */\n      swap1\n      pop\n        /* \"contracts/level3.sol\":633:649  uint256 coinFlip */\n      0x00\n        /* \"contracts/level3.sol\":652:674  blockValue.div(FACTOR) */\n      tag_23\n        /* \"contracts/level3.sol\":667:673  FACTOR */\n      sload(0x02)\n        /* \"contracts/level3.sol\":652:662  blockValue */\n      dup4\n        /* \"contracts/level3.sol\":652:666  blockValue.div */\n      tag_24\n      swap1\n        /* \"contracts/level3.sol\":652:674  blockValue.div(FACTOR) */\n      swap2\n      swap1\n      0xffffffff\n      and\n      jump\t// in\n    tag_23:\n        /* \"contracts/level3.sol\":633:674  uint256 coinFlip = blockValue.div(FACTOR) */\n      swap1\n      pop\n        /* \"contracts/level3.sol\":685:694  bool side */\n      0x00\n        /* \"contracts/level3.sol\":709:710  1 */\n      0x01\n        /* \"contracts/level3.sol\":697:705  coinFlip */\n      dup3\n        /* \"contracts/level3.sol\":697:710  coinFlip == 1 */\n      eq\n        /* \"contracts/level3.sol\":697:725  coinFlip == 1 ? true : false */\n      tag_25\n      jumpi\n        /* \"contracts/level3.sol\":720:725  false */\n      0x00\n        /* \"contracts/level3.sol\":697:725  coinFlip == 1 ? true : false */\n      jump(tag_26)\n    tag_25:\n        /* \"contracts/level3.sol\":713:717  true */\n      0x01\n        /* \"contracts/level3.sol\":697:725  coinFlip == 1 ? true : false */\n    tag_26:\n        /* \"contracts/level3.sol\":685:725  bool side = coinFlip == 1 ? true : false */\n      swap1\n      pop\n        /* \"contracts/level3.sol\":738:745  surface */\n      0x00\n      dup1\n      sload\n      swap1\n      0x0100\n      exp\n      swap1\n      div\n      0xffffffffffffffffffffffffffffffffffffffff\n      and\n        /* \"contracts/level3.sol\":738:750  surface.flip */\n      0xffffffffffffffffffffffffffffffffffffffff\n      and\n      0x1d263f67\n        /* \"contracts/level3.sol\":751:755  side */\n      dup3\n        /* \"contracts/level3.sol\":738:756  surface.flip(side) */\n      mload(0x40)\n      dup3\n      0xffffffff\n      and\n      0xe0\n      shl\n      dup2\n      mstore\n      0x04\n      add\n      tag_27\n      swap2\n      swap1\n      tag_28\n      jump\t// in\n    tag_27:\n      0x20\n      mload(0x40)\n      dup1\n      dup4\n      sub\n      dup2\n      0x00\n      dup8\n      dup1\n      extcodesize\n      iszero\n      dup1\n      iszero\n      tag_29\n      jumpi\n      0x00\n      dup1\n      revert\n    tag_29:\n      pop\n      gas\n      call\n      iszero\n      dup1\n      iszero\n      tag_31\n      jumpi\n      returndatasize\n      0x00\n      dup1\n      returndatacopy\n      revert(0x00, returndatasize)\n    tag_31:\n      pop\n      pop\n      pop\n      pop\n      mload(0x40)\n      returndatasize\n      not(0x1f)\n      0x1f\n      dup3\n      add\n      and\n      dup3\n      add\n      dup1\n      0x40\n      mstore\n      pop\n      dup2\n      add\n      swap1\n      tag_32\n      swap2\n      swap1\n      tag_33\n      jump\t// in\n    tag_32:\n      pop\n        /* \"contracts/level3.sol\":539:764  {\r... */\n      pop\n      pop\n      pop\n        /* \"contracts/level3.sol\":507:764  function win() external payable {\r... */\n      jump\t// out\n        /* \"contracts/level3.sol\":262:292  uint256 public consecutiveWins */\n    tag_17:\n      sload(0x01)\n      dup2\n      jump\t// out\n        /* \"@openzeppelin/contracts/utils/math/SafeMath.sol\":3108:3204  function sub(uint256 a, uint256 b) internal pure returns (uint256) {... */\n    tag_22:\n        /* \"@openzeppelin/contracts/utils/math/SafeMath.sol\":3166:3173  uint256 */\n      0x00\n        /* \"@openzeppelin/contracts/utils/math/SafeMath.sol\":3196:3197  b */\n      dup2\n        /* \"@openzeppelin/contracts/utils/math/SafeMath.sol\":3192:3193  a */\n      dup4\n        /* \"@openzeppelin/contracts/utils/math/SafeMath.sol\":3192:3197  a - b */\n      tag_35\n      swap2\n      swap1\n      tag_36\n      jump\t// in\n    tag_35:\n        /* \"@openzeppelin/contracts/utils/math/SafeMath.sol\":3185:3197  return a - b */\n      swap1\n      pop\n        /* \"@openzeppelin/contracts/utils/math/SafeMath.sol\":3108:3204  function sub(uint256 a, uint256 b) internal pure returns (uint256) {... */\n      swap3\n      swap2\n      pop\n      pop\n      jump\t// out\n        /* \"@openzeppelin/contracts/utils/math/SafeMath.sol\":3836:3932  function div(uint256 a, uint256 b) internal pure returns (uint256) {... */\n    tag_24:\n        /* \"@openzeppelin/contracts/utils/math/SafeMath.sol\":3894:3901  uint256 */\n      0x00\n        /* \"@openzeppelin/contracts/utils/math/SafeMath.sol\":3924:3925  b */\n      dup2\n        /* \"@openzeppelin/contracts/utils/math/SafeMath.sol\":3920:3921  a */\n      dup4\n        /* \"@openzeppelin/contracts/utils/math/SafeMath.sol\":3920:3925  a / b */\n      tag_38\n      swap2\n      swap1\n      tag_39\n      jump\t// in\n    tag_38:\n        /* \"@openzeppelin/contracts/utils/math/SafeMath.sol\":3913:3925  return a / b */\n      swap1\n      pop\n        /* \"@openzeppelin/contracts/utils/math/SafeMath.sol\":3836:3932  function div(uint256 a, uint256 b) internal pure returns (uint256) {... */\n      swap3\n      swap2\n      pop\n      pop\n      jump\t// out\n        /* \"#utility.yul\":7:144   */\n    tag_41:\n        /* \"#utility.yul\":61:66   */\n      0x00\n        /* \"#utility.yul\":92:98   */\n      dup2\n        /* \"#utility.yul\":86:99   */\n      mload\n        /* \"#utility.yul\":77:99   */\n      swap1\n      pop\n        /* \"#utility.yul\":108:138   */\n      tag_43\n        /* \"#utility.yul\":132:137   */\n      dup2\n        /* \"#utility.yul\":108:138   */\n      tag_44\n      jump\t// in\n    tag_43:\n        /* \"#utility.yul\":7:144   */\n      swap3\n      swap2\n      pop\n      pop\n      jump\t// out\n        /* \"#utility.yul\":150:495   */\n    tag_33:\n        /* \"#utility.yul\":217:223   */\n      0x00\n        /* \"#utility.yul\":266:268   */\n      0x20\n        /* \"#utility.yul\":254:263   */\n      dup3\n        /* \"#utility.yul\":245:252   */\n      dup5\n        /* \"#utility.yul\":241:264   */\n      sub\n        /* \"#utility.yul\":237:269   */\n      slt\n        /* \"#utility.yul\":234:353   */\n      iszero\n      tag_46\n      jumpi\n        /* \"#utility.yul\":272:351   */\n      tag_47\n      tag_48\n      jump\t// in\n    tag_47:\n        /* \"#utility.yul\":234:353   */\n    tag_46:\n        /* \"#utility.yul\":392:393   */\n      0x00\n        /* \"#utility.yul\":417:478   */\n      tag_49\n        /* \"#utility.yul\":470:477   */\n      dup5\n        /* \"#utility.yul\":461:467   */\n      dup3\n        /* \"#utility.yul\":450:459   */\n      dup6\n        /* \"#utility.yul\":446:468   */\n      add\n        /* \"#utility.yul\":417:478   */\n      tag_41\n      jump\t// in\n    tag_49:\n        /* \"#utility.yul\":407:478   */\n      swap2\n      pop\n        /* \"#utility.yul\":363:488   */\n      pop\n        /* \"#utility.yul\":150:495   */\n      swap3\n      swap2\n      pop\n      pop\n      jump\t// out\n        /* \"#utility.yul\":501:610   */\n    tag_50:\n        /* \"#utility.yul\":582:603   */\n      tag_52\n        /* \"#utility.yul\":597:602   */\n      dup2\n        /* \"#utility.yul\":582:603   */\n      tag_53\n      jump\t// in\n    tag_52:\n        /* \"#utility.yul\":577:580   */\n      dup3\n        /* \"#utility.yul\":570:604   */\n      mstore\n        /* \"#utility.yul\":501:610   */\n      pop\n      pop\n      jump\t// out\n        /* \"#utility.yul\":616:781   */\n    tag_54:\n        /* \"#utility.yul\":720:774   */\n      tag_56\n        /* \"#utility.yul\":768:773   */\n      dup2\n        /* \"#utility.yul\":720:774   */\n      tag_57\n      jump\t// in\n    tag_56:\n        /* \"#utility.yul\":715:718   */\n      dup3\n        /* \"#utility.yul\":708:775   */\n      mstore\n        /* \"#utility.yul\":616:781   */\n      pop\n      pop\n      jump\t// out\n        /* \"#utility.yul\":787:905   */\n    tag_58:\n        /* \"#utility.yul\":874:898   */\n      tag_60\n        /* \"#utility.yul\":892:897   */\n      dup2\n        /* \"#utility.yul\":874:898   */\n      tag_61\n      jump\t// in\n    tag_60:\n        /* \"#utility.yul\":869:872   */\n      dup3\n        /* \"#utility.yul\":862:899   */\n      mstore\n        /* \"#utility.yul\":787:905   */\n      pop\n      pop\n      jump\t// out\n        /* \"#utility.yul\":911:1121   */\n    tag_28:\n        /* \"#utility.yul\":998:1002   */\n      0x00\n        /* \"#utility.yul\":1036:1038   */\n      0x20\n        /* \"#utility.yul\":1025:1034   */\n      dup3\n        /* \"#utility.yul\":1021:1039   */\n      add\n        /* \"#utility.yul\":1013:1039   */\n      swap1\n      pop\n        /* \"#utility.yul\":1049:1114   */\n      tag_63\n        /* \"#utility.yul\":1111:1112   */\n      0x00\n        /* \"#utility.yul\":1100:1109   */\n      dup4\n        /* \"#utility.yul\":1096:1113   */\n      add\n        /* \"#utility.yul\":1087:1093   */\n      dup5\n        /* \"#utility.yul\":1049:1114   */\n      tag_50\n      jump\t// in\n    tag_63:\n        /* \"#utility.yul\":911:1121   */\n      swap3\n      swap2\n      pop\n      pop\n      jump\t// out\n        /* \"#utility.yul\":1127:1383   */\n    tag_12:\n        /* \"#utility.yul\":1237:1241   */\n      0x00\n        /* \"#utility.yul\":1275:1277   */\n      0x20\n        /* \"#utility.yul\":1264:1273   */\n      dup3\n        /* \"#utility.yul\":1260:1278   */\n      add\n        /* \"#utility.yul\":1252:1278   */\n      swap1\n      pop\n        /* \"#utility.yul\":1288:1376   */\n      tag_65\n        /* \"#utility.yul\":1373:1374   */\n      0x00\n        /* \"#utility.yul\":1362:1371   */\n      dup4\n        /* \"#utility.yul\":1358:1375   */\n      add\n        /* \"#utility.yul\":1349:1355   */\n      dup5\n        /* \"#utility.yul\":1288:1376   */\n      tag_54\n      jump\t// in\n    tag_65:\n        /* \"#utility.yul\":1127:1383   */\n      swap3\n      swap2\n      pop\n      pop\n      jump\t// out\n        /* \"#utility.yul\":1389:1611   */\n    tag_19:\n        /* \"#utility.yul\":1482:1486   */\n      0x00\n        /* \"#utility.yul\":1520:1522   */\n      0x20\n        /* \"#utility.yul\":1509:1518   */\n      dup3\n        /* \"#utility.yul\":1505:1523   */\n      add\n        /* \"#utility.yul\":1497:1523   */\n      swap1\n      pop\n        /* \"#utility.yul\":1533:1604   */\n      tag_67\n        /* \"#utility.yul\":1601:1602   */\n      0x00\n        /* \"#utility.yul\":1590:1599   */\n      dup4\n        /* \"#utility.yul\":1586:1603   */\n      add\n        /* \"#utility.yul\":1577:1583   */\n      dup5\n        /* \"#utility.yul\":1533:1604   */\n      tag_58\n      jump\t// in\n    tag_67:\n        /* \"#utility.yul\":1389:1611   */\n      swap3\n      swap2\n      pop\n      pop\n      jump\t// out\n        /* \"#utility.yul\":1698:1883   */\n    tag_39:\n        /* \"#utility.yul\":1738:1739   */\n      0x00\n        /* \"#utility.yul\":1755:1775   */\n      tag_71\n        /* \"#utility.yul\":1773:1774   */\n      dup3\n        /* \"#utility.yul\":1755:1775   */\n      tag_61\n      jump\t// in\n    tag_71:\n        /* \"#utility.yul\":1750:1775   */\n      swap2\n      pop\n        /* \"#utility.yul\":1789:1809   */\n      tag_72\n        /* \"#utility.yul\":1807:1808   */\n      dup4\n        /* \"#utility.yul\":1789:1809   */\n      tag_61\n      jump\t// in\n    tag_72:\n        /* \"#utility.yul\":1784:1809   */\n      swap3\n      pop\n        /* \"#utility.yul\":1828:1829   */\n      dup3\n        /* \"#utility.yul\":1818:1853   */\n      tag_73\n      jumpi\n        /* \"#utility.yul\":1833:1851   */\n      tag_74\n      tag_75\n      jump\t// in\n    tag_74:\n        /* \"#utility.yul\":1818:1853   */\n    tag_73:\n        /* \"#utility.yul\":1875:1876   */\n      dup3\n        /* \"#utility.yul\":1872:1873   */\n      dup3\n        /* \"#utility.yul\":1868:1877   */\n      div\n        /* \"#utility.yul\":1863:1877   */\n      swap1\n      pop\n        /* \"#utility.yul\":1698:1883   */\n      swap3\n      swap2\n      pop\n      pop\n      jump\t// out\n        /* \"#utility.yul\":1889:2080   */\n    tag_36:\n        /* \"#utility.yul\":1929:1933   */\n      0x00\n        /* \"#utility.yul\":1949:1969   */\n      tag_77\n        /* \"#utility.yul\":1967:1968   */\n      dup3\n        /* \"#utility.yul\":1949:1969   */\n      tag_61\n      jump\t// in\n    tag_77:\n        /* \"#utility.yul\":1944:1969   */\n      swap2\n      pop\n        /* \"#utility.yul\":1983:2003   */\n      tag_78\n        /* \"#utility.yul\":2001:2002   */\n      dup4\n        /* \"#utility.yul\":1983:2003   */\n      tag_61\n      jump\t// in\n    tag_78:\n        /* \"#utility.yul\":1978:2003   */\n      swap3\n      pop\n        /* \"#utility.yul\":2022:2023   */\n      dup3\n        /* \"#utility.yul\":2019:2020   */\n      dup3\n        /* \"#utility.yul\":2016:2024   */\n      lt\n        /* \"#utility.yul\":2013:2047   */\n      iszero\n      tag_79\n      jumpi\n        /* \"#utility.yul\":2027:2045   */\n      tag_80\n      tag_81\n      jump\t// in\n    tag_80:\n        /* \"#utility.yul\":2013:2047   */\n    tag_79:\n        /* \"#utility.yul\":2072:2073   */\n      dup3\n        /* \"#utility.yul\":2069:2070   */\n      dup3\n        /* \"#utility.yul\":2065:2074   */\n      sub\n        /* \"#utility.yul\":2057:2074   */\n      swap1\n      pop\n        /* \"#utility.yul\":1889:2080   */\n      swap3\n      swap2\n      pop\n      pop\n      jump\t// out\n        /* \"#utility.yul\":2086:2176   */\n    tag_53:\n        /* \"#utility.yul\":2120:2127   */\n      0x00\n        /* \"#utility.yul\":2163:2168   */\n      dup2\n        /* \"#utility.yul\":2156:2169   */\n      iszero\n        /* \"#utility.yul\":2149:2170   */\n      iszero\n        /* \"#utility.yul\":2138:2170   */\n      swap1\n      pop\n        /* \"#utility.yul\":2086:2176   */\n      swap2\n      swap1\n      pop\n      jump\t// out\n        /* \"#utility.yul\":2182:2308   */\n    tag_83:\n        /* \"#utility.yul\":2219:2226   */\n      0x00\n        /* \"#utility.yul\":2259:2301   */\n      0xffffffffffffffffffffffffffffffffffffffff\n        /* \"#utility.yul\":2252:2257   */\n      dup3\n        /* \"#utility.yul\":2248:2302   */\n      and\n        /* \"#utility.yul\":2237:2302   */\n      swap1\n      pop\n        /* \"#utility.yul\":2182:2308   */\n      swap2\n      swap1\n      pop\n      jump\t// out\n        /* \"#utility.yul\":2314:2391   */\n    tag_61:\n        /* \"#utility.yul\":2351:2358   */\n      0x00\n        /* \"#utility.yul\":2380:2385   */\n      dup2\n        /* \"#utility.yul\":2369:2385   */\n      swap1\n      pop\n        /* \"#utility.yul\":2314:2391   */\n      swap2\n      swap1\n      pop\n      jump\t// out\n        /* \"#utility.yul\":2397:2540   */\n    tag_57:\n        /* \"#utility.yul\":2464:2473   */\n      0x00\n        /* \"#utility.yul\":2497:2534   */\n      tag_87\n        /* \"#utility.yul\":2528:2533   */\n      dup3\n        /* \"#utility.yul\":2497:2534   */\n      tag_88\n      jump\t// in\n    tag_87:\n        /* \"#utility.yul\":2484:2534   */\n      swap1\n      pop\n        /* \"#utility.yul\":2397:2540   */\n      swap2\n      swap1\n      pop\n      jump\t// out\n        /* \"#utility.yul\":2546:2672   */\n    tag_88:\n        /* \"#utility.yul\":2596:2605   */\n      0x00\n        /* \"#utility.yul\":2629:2666   */\n      tag_90\n        /* \"#utility.yul\":2660:2665   */\n      dup3\n        /* \"#utility.yul\":2629:2666   */\n      tag_91\n      jump\t// in\n    tag_90:\n        /* \"#utility.yul\":2616:2666   */\n      swap1\n      pop\n        /* \"#utility.yul\":2546:2672   */\n      swap2\n      swap1\n      pop\n      jump\t// out\n        /* \"#utility.yul\":2678:2791   */\n    tag_91:\n        /* \"#utility.yul\":2728:2737   */\n      0x00\n        /* \"#utility.yul\":2761:2785   */\n      tag_93\n        /* \"#utility.yul\":2779:2784   */\n      dup3\n        /* \"#utility.yul\":2761:2785   */\n      tag_83\n      jump\t// in\n    tag_93:\n        /* \"#utility.yul\":2748:2785   */\n      swap1\n      pop\n        /* \"#utility.yul\":2678:2791   */\n      swap2\n      swap1\n      pop\n      jump\t// out\n        /* \"#utility.yul\":2797:2977   */\n    tag_81:\n        /* \"#utility.yul\":2845:2922   */\n      0x4e487b7100000000000000000000000000000000000000000000000000000000\n        /* \"#utility.yul\":2842:2843   */\n      0x00\n        /* \"#utility.yul\":2835:2923   */\n      mstore\n        /* \"#utility.yul\":2942:2946   */\n      0x11\n        /* \"#utility.yul\":2939:2940   */\n      0x04\n        /* \"#utility.yul\":2932:2947   */\n      mstore\n        /* \"#utility.yul\":2966:2970   */\n      0x24\n        /* \"#utility.yul\":2963:2964   */\n      0x00\n        /* \"#utility.yul\":2956:2971   */\n      revert\n        /* \"#utility.yul\":2983:3163   */\n    tag_75:\n        /* \"#utility.yul\":3031:3108   */\n      0x4e487b7100000000000000000000000000000000000000000000000000000000\n        /* \"#utility.yul\":3028:3029   */\n      0x00\n        /* \"#utility.yul\":3021:3109   */\n      mstore\n        /* \"#utility.yul\":3128:3132   */\n      0x12\n        /* \"#utility.yul\":3125:3126   */\n      0x04\n        /* \"#utility.yul\":3118:3133   */\n      mstore\n        /* \"#utility.yul\":3152:3156   */\n      0x24\n        /* \"#utility.yul\":3149:3150   */\n      0x00\n        /* \"#utility.yul\":3142:3157   */\n      revert\n        /* \"#utility.yul\":3292:3409   */\n    tag_48:\n        /* \"#utility.yul\":3401:3402   */\n      0x00\n        /* \"#utility.yul\":3398:3399   */\n      dup1\n        /* \"#utility.yul\":3391:3403   */\n      revert\n        /* \"#utility.yul\":3415:3531   */\n    tag_44:\n        /* \"#utility.yul\":3485:3506   */\n      tag_100\n        /* \"#utility.yul\":3500:3505   */\n      dup2\n        /* \"#utility.yul\":3485:3506   */\n      tag_53\n      jump\t// in\n    tag_100:\n        /* \"#utility.yul\":3478:3483   */\n      dup2\n        /* \"#utility.yul\":3475:3507   */\n      eq\n        /* \"#utility.yul\":3465:3525   */\n      tag_101\n      jumpi\n        /* \"#utility.yul\":3521:3522   */\n      0x00\n        /* \"#utility.yul\":3518:3519   */\n      dup1\n        /* \"#utility.yul\":3511:3523   */\n      revert\n        /* \"#utility.yul\":3465:3525   */\n    tag_101:\n        /* \"#utility.yul\":3415:3531   */\n      pop\n      jump\t// out\n\n    auxdata: 0xa2646970667358221220c6dc6c01eb27083b50de36c0ba1d50f9f01d65aa955baae70b1aa201d9532bfc64736f6c63430008070033\n}\n",
				"bytecode": {
					"linkReferences": {},
					"object": "60806040527f800000000000000000000000000000000000000000000000000000000000000060025534801561003457600080fd5b507396e35b7e384d933450272f1c7b34a169b0763b1c6000806101000a81548173ffffffffffffffffffffffffffffffffffffffff021916908373ffffffffffffffffffffffffffffffffffffffff160217905550610437806100986000396000f3fe6080604052600436106100385760003560e01c80630e94ba8314610044578063473ca96c1461006f578063e6f334d7146100795761003f565b3661003f57005b600080fd5b34801561005057600080fd5b506100596100a4565b6040516100669190610280565b60405180910390f35b6100776100c8565b005b34801561008557600080fd5b5061008e6101c4565b60405161009b919061029b565b60405180910390f35b60008054906101000a900473ffffffffffffffffffffffffffffffffffffffff1681565b60006100de6001436101ca90919063ffffffff16565b4060001c905060006100fb600254836101e090919063ffffffff16565b905060006001821461010e576000610111565b60015b905060008054906101000a900473ffffffffffffffffffffffffffffffffffffffff1673ffffffffffffffffffffffffffffffffffffffff16631d263f67826040518263ffffffff1660e01b815260040161016c9190610265565b602060405180830381600087803b15801561018657600080fd5b505af115801561019a573d6000803e3d6000fd5b505050506040513d601f19601f820116820180604052508101906101be919061020b565b50505050565b60015481565b600081836101d891906102e7565b905092915050565b600081836101ee91906102b6565b905092915050565b600081519050610205816103ea565b92915050565b600060208284031215610221576102206103e5565b5b600061022f848285016101f6565b91505092915050565b6102418161031b565b82525050565b61025081610351565b82525050565b61025f81610347565b82525050565b600060208201905061027a6000830184610238565b92915050565b60006020820190506102956000830184610247565b92915050565b60006020820190506102b06000830184610256565b92915050565b60006102c182610347565b91506102cc83610347565b9250826102dc576102db6103b6565b5b828204905092915050565b60006102f282610347565b91506102fd83610347565b9250828210156103105761030f610387565b5b828203905092915050565b60008115159050919050565b600073ffffffffffffffffffffffffffffffffffffffff82169050919050565b6000819050919050565b600061035c82610363565b9050919050565b600061036e82610375565b9050919050565b600061038082610327565b9050919050565b7f4e487b7100000000000000000000000000000000000000000000000000000000600052601160045260246000fd5b7f4e487b7100000000000000000000000000000000000000000000000000000000600052601260045260246000fd5b600080fd5b6103f38161031b565b81146103fe57600080fd5b5056fea2646970667358221220c6dc6c01eb27083b50de36c0ba1d50f9f01d65aa955baae70b1aa201d9532bfc64736f6c63430008070033",
					"opcodes": "PUSH1 0x80 PUSH1 0x40 MSTORE PUSH32 0x8000000000000000000000000000000000000000000000000000000000000000 PUSH1 0x2 SSTORE CALLVALUE DUP1 ISZERO PUSH2 0x34 JUMPI PUSH1 0x0 DUP1 REVERT JUMPDEST POP PUSH20 0x96E35B7E384D933450272F1C7B34A169B0763B1C PUSH1 0x0 DUP1 PUSH2 0x100 EXP DUP2 SLOAD DUP2 PUSH20 0xFFFFFFFFFFFFFFFFFFFFFFFFFFFFFFFFFFFFFFFF MUL NOT AND SWAP1 DUP4 PUSH20 0xFFFFFFFFFFFFFFFFFFFFFFFFFFFFFFFFFFFFFFFF AND MUL OR SWAP1 SSTORE POP PUSH2 0x437 DUP1 PUSH2 0x98 PUSH1 0x0 CODECOPY PUSH1 0x0 RETURN INVALID PUSH1 0x80 PUSH1 0x40 MSTORE PUSH1 0x4 CALLDATASIZE LT PUSH2 0x38 JUMPI PUSH1 0x0 CALLDATALOAD PUSH1 0xE0 SHR DUP1 PUSH4 0xE94BA83 EQ PUSH2 0x44 JUMPI DUP1 PUSH4 0x473CA96C EQ PUSH2 0x6F JUMPI DUP1 PUSH4 0xE6F334D7 EQ PUSH2 0x79 JUMPI PUSH2 0x3F JUMP JUMPDEST CALLDATASIZE PUSH2 0x3F JUMPI STOP JUMPDEST PUSH1 0x0 DUP1 REVERT JUMPDEST CALLVALUE DUP1 ISZERO PUSH2 0x50 JUMPI PUSH1 0x0 DUP1 REVERT JUMPDEST POP PUSH2 0x59 PUSH2 0xA4 JUMP JUMPDEST PUSH1 0x40 MLOAD PUSH2 0x66 SWAP2 SWAP1 PUSH2 0x280 JUMP JUMPDEST PUSH1 0x40 MLOAD DUP1 SWAP2 SUB SWAP1 RETURN JUMPDEST PUSH2 0x77 PUSH2 0xC8 JUMP JUMPDEST STOP JUMPDEST CALLVALUE DUP1 ISZERO PUSH2 0x85 JUMPI PUSH1 0x0 DUP1 REVERT JUMPDEST POP PUSH2 0x8E PUSH2 0x1C4 JUMP JUMPDEST PUSH1 0x40 MLOAD PUSH2 0x9B SWAP2 SWAP1 PUSH2 0x29B JUMP JUMPDEST PUSH1 0x40 MLOAD DUP1 SWAP2 SUB SWAP1 RETURN JUMPDEST PUSH1 0x0 DUP1 SLOAD SWAP1 PUSH2 0x100 EXP SWAP1 DIV PUSH20 0xFFFFFFFFFFFFFFFFFFFFFFFFFFFFFFFFFFFFFFFF AND DUP2 JUMP JUMPDEST PUSH1 0x0 PUSH2 0xDE PUSH1 0x1 NUMBER PUSH2 0x1CA SWAP1 SWAP2 SWAP1 PUSH4 0xFFFFFFFF AND JUMP JUMPDEST BLOCKHASH PUSH1 0x0 SHR SWAP1 POP PUSH1 0x0 PUSH2 0xFB PUSH1 0x2 SLOAD DUP4 PUSH2 0x1E0 SWAP1 SWAP2 SWAP1 PUSH4 0xFFFFFFFF AND JUMP JUMPDEST SWAP1 POP PUSH1 0x0 PUSH1 0x1 DUP3 EQ PUSH2 0x10E JUMPI PUSH1 0x0 PUSH2 0x111 JUMP JUMPDEST PUSH1 0x1 JUMPDEST SWAP1 POP PUSH1 0x0 DUP1 SLOAD SWAP1 PUSH2 0x100 EXP SWAP1 DIV PUSH20 0xFFFFFFFFFFFFFFFFFFFFFFFFFFFFFFFFFFFFFFFF AND PUSH20 0xFFFFFFFFFFFFFFFFFFFFFFFFFFFFFFFFFFFFFFFF AND PUSH4 0x1D263F67 DUP3 PUSH1 0x40 MLOAD DUP3 PUSH4 0xFFFFFFFF AND PUSH1 0xE0 SHL DUP2 MSTORE PUSH1 0x4 ADD PUSH2 0x16C SWAP2 SWAP1 PUSH2 0x265 JUMP JUMPDEST PUSH1 0x20 PUSH1 0x40 MLOAD DUP1 DUP4 SUB DUP2 PUSH1 0x0 DUP8 DUP1 EXTCODESIZE ISZERO DUP1 ISZERO PUSH2 0x186 JUMPI PUSH1 0x0 DUP1 REVERT JUMPDEST POP GAS CALL ISZERO DUP1 ISZERO PUSH2 0x19A JUMPI RETURNDATASIZE PUSH1 0x0 DUP1 RETURNDATACOPY RETURNDATASIZE PUSH1 0x0 REVERT JUMPDEST POP POP POP POP PUSH1 0x40 MLOAD RETURNDATASIZE PUSH1 0x1F NOT PUSH1 0x1F DUP3 ADD AND DUP3 ADD DUP1 PUSH1 0x40 MSTORE POP DUP2 ADD SWAP1 PUSH2 0x1BE SWAP2 SWAP1 PUSH2 0x20B JUMP JUMPDEST POP POP POP POP JUMP JUMPDEST PUSH1 0x1 SLOAD DUP2 JUMP JUMPDEST PUSH1 0x0 DUP2 DUP4 PUSH2 0x1D8 SWAP2 SWAP1 PUSH2 0x2E7 JUMP JUMPDEST SWAP1 POP SWAP3 SWAP2 POP POP JUMP JUMPDEST PUSH1 0x0 DUP2 DUP4 PUSH2 0x1EE SWAP2 SWAP1 PUSH2 0x2B6 JUMP JUMPDEST SWAP1 POP SWAP3 SWAP2 POP POP JUMP JUMPDEST PUSH1 0x0 DUP2 MLOAD SWAP1 POP PUSH2 0x205 DUP2 PUSH2 0x3EA JUMP JUMPDEST SWAP3 SWAP2 POP POP JUMP JUMPDEST PUSH1 0x0 PUSH1 0x20 DUP3 DUP5 SUB SLT ISZERO PUSH2 0x221 JUMPI PUSH2 0x220 PUSH2 0x3E5 JUMP JUMPDEST JUMPDEST PUSH1 0x0 PUSH2 0x22F DUP5 DUP3 DUP6 ADD PUSH2 0x1F6 JUMP JUMPDEST SWAP2 POP POP SWAP3 SWAP2 POP POP JUMP JUMPDEST PUSH2 0x241 DUP2 PUSH2 0x31B JUMP JUMPDEST DUP3 MSTORE POP POP JUMP JUMPDEST PUSH2 0x250 DUP2 PUSH2 0x351 JUMP JUMPDEST DUP3 MSTORE POP POP JUMP JUMPDEST PUSH2 0x25F DUP2 PUSH2 0x347 JUMP JUMPDEST DUP3 MSTORE POP POP JUMP JUMPDEST PUSH1 0x0 PUSH1 0x20 DUP3 ADD SWAP1 POP PUSH2 0x27A PUSH1 0x0 DUP4 ADD DUP5 PUSH2 0x238 JUMP JUMPDEST SWAP3 SWAP2 POP POP JUMP JUMPDEST PUSH1 0x0 PUSH1 0x20 DUP3 ADD SWAP1 POP PUSH2 0x295 PUSH1 0x0 DUP4 ADD DUP5 PUSH2 0x247 JUMP JUMPDEST SWAP3 SWAP2 POP POP JUMP JUMPDEST PUSH1 0x0 PUSH1 0x20 DUP3 ADD SWAP1 POP PUSH2 0x2B0 PUSH1 0x0 DUP4 ADD DUP5 PUSH2 0x256 JUMP JUMPDEST SWAP3 SWAP2 POP POP JUMP JUMPDEST PUSH1 0x0 PUSH2 0x2C1 DUP3 PUSH2 0x347 JUMP JUMPDEST SWAP2 POP PUSH2 0x2CC DUP4 PUSH2 0x347 JUMP JUMPDEST SWAP3 POP DUP3 PUSH2 0x2DC JUMPI PUSH2 0x2DB PUSH2 0x3B6 JUMP JUMPDEST JUMPDEST DUP3 DUP3 DIV SWAP1 POP SWAP3 SWAP2 POP POP JUMP JUMPDEST PUSH1 0x0 PUSH2 0x2F2 DUP3 PUSH2 0x347 JUMP JUMPDEST SWAP2 POP PUSH2 0x2FD DUP4 PUSH2 0x347 JUMP JUMPDEST SWAP3 POP DUP3 DUP3 LT ISZERO PUSH2 0x310 JUMPI PUSH2 0x30F PUSH2 0x387 JUMP JUMPDEST JUMPDEST DUP3 DUP3 SUB SWAP1 POP SWAP3 SWAP2 POP POP JUMP JUMPDEST PUSH1 0x0 DUP2 ISZERO ISZERO SWAP1 POP SWAP2 SWAP1 POP JUMP JUMPDEST PUSH1 0x0 PUSH20 0xFFFFFFFFFFFFFFFFFFFFFFFFFFFFFFFFFFFFFFFF DUP3 AND SWAP1 POP SWAP2 SWAP1 POP JUMP JUMPDEST PUSH1 0x0 DUP2 SWAP1 POP SWAP2 SWAP1 POP JUMP JUMPDEST PUSH1 0x0 PUSH2 0x35C DUP3 PUSH2 0x363 JUMP JUMPDEST SWAP1 POP SWAP2 SWAP1 POP JUMP JUMPDEST PUSH1 0x0 PUSH2 0x36E DUP3 PUSH2 0x375 JUMP JUMPDEST SWAP1 POP SWAP2 SWAP1 POP JUMP JUMPDEST PUSH1 0x0 PUSH2 0x380 DUP3 PUSH2 0x327 JUMP JUMPDEST SWAP1 POP SWAP2 SWAP1 POP JUMP JUMPDEST PUSH32 0x4E487B7100000000000000000000000000000000000000000000000000000000 PUSH1 0x0 MSTORE PUSH1 0x11 PUSH1 0x4 MSTORE PUSH1 0x24 PUSH1 0x0 REVERT JUMPDEST PUSH32 0x4E487B7100000000000000000000000000000000000000000000000000000000 PUSH1 0x0 MSTORE PUSH1 0x12 PUSH1 0x4 MSTORE PUSH1 0x24 PUSH1 0x0 REVERT JUMPDEST PUSH1 0x0 DUP1 REVERT JUMPDEST PUSH2 0x3F3 DUP2 PUSH2 0x31B JUMP JUMPDEST DUP2 EQ PUSH2 0x3FE JUMPI PUSH1 0x0 DUP1 REVERT JUMPDEST POP JUMP INVALID LOG2 PUSH5 0x6970667358 0x22 SLT KECCAK256 0xC6 0xDC PUSH13 0x1EB27083B50DE36C0BA1D50F9 CREATE SAR PUSH6 0xAA955BAAE70B BYTE LOG2 ADD 0xD9 MSTORE8 0x2B 0xFC PUSH5 0x736F6C6343 STOP ADDMOD SMOD STOP CALLER "
				},
				"gasEstimates": {
					"creation": {
						"codeDepositCost": "215800",
						"executionCost": "46630",
						"totalCost": "262430"
					},
					"external": {
						"consecutiveWins()": "2451",
						"surface()": "2575",
						"win()": "infinite"
					}
				},
				"methodIdentifiers": {
					"consecutiveWins()": "e6f334d7",
					"surface()": "0e94ba83",
					"win()": "473ca96c"
				}
			},
			"userdoc": {
				"kind": "user",
				"methods": {},
				"version": 1
			}
		}
	}
}