{
	"contracts/level3.sol": {
		"level3": {
			"abi": [
				{
					"inputs": [],
					"stateMutability": "nonpayable",
					"type": "constructor"
				},
				{
					"inputs": [],
					"name": "consecutiveWins",
					"outputs": [
						{
							"internalType": "uint256",
							"name": "",
							"type": "uint256"
						}
					],
					"stateMutability": "view",
					"type": "function"
				},
				{
					"inputs": [],
					"name": "surface",
					"outputs": [
						{
							"internalType": "contract ICoinFlip",
							"name": "",
							"type": "address"
						}
					],
					"stateMutability": "view",
					"type": "function"
				},
				{
					"inputs": [],
					"name": "win",
					"outputs": [],
					"stateMutability": "payable",
					"type": "function"
				},
				{
					"stateMutability": "payable",
					"type": "receive"
				}
			],
			"devdoc": {
				"kind": "dev",
				"methods": {},
				"version": 1
			},
			"evm": {
				"assembly": "    /* \"contracts/level3.sol\":112:713  contract level3 {\r... */\n  mstore(0x40, 0x80)\n    /* \"contracts/level3.sol\":224:301  57896044618658097711785492504343953926634992332820282019728792003956564819968 */\n  0x8000000000000000000000000000000000000000000000000000000000000000\n    /* \"contracts/level3.sol\":207:301  uint256 FACTOR = 57896044618658097711785492504343953926634992332820282019728792003956564819968 */\n  0x02\n  sstore\n    /* \"contracts/level3.sol\":310:405  constructor(){\r... */\n  callvalue\n  dup1\n  iszero\n  tag_1\n  jumpi\n  0x00\n  dup1\n  revert\ntag_1:\n  pop\n    /* \"contracts/level3.sol\":354:396  0x96E35B7e384D933450272F1C7b34a169B0763b1C */\n  0x96e35b7e384d933450272f1c7b34a169b0763b1c\n    /* \"contracts/level3.sol\":334:341  surface */\n  0x00\n  dup1\n    /* \"contracts/level3.sol\":334:397  surface = ICoinFlip(0x96E35B7e384D933450272F1C7b34a169B0763b1C) */\n  0x0100\n  exp\n  dup2\n  sload\n  dup2\n  0xffffffffffffffffffffffffffffffffffffffff\n  mul\n  not\n  and\n  swap1\n  dup4\n  0xffffffffffffffffffffffffffffffffffffffff\n  and\n  mul\n  or\n  swap1\n  sstore\n  pop\n    /* \"contracts/level3.sol\":112:713  contract level3 {\r... */\n  dataSize(sub_0)\n  dup1\n  dataOffset(sub_0)\n  0x00\n  codecopy\n  0x00\n  return\nstop\n\nsub_0: assembly {\n        /* \"contracts/level3.sol\":112:713  contract level3 {\r... */\n      mstore(0x40, 0x80)\n      jumpi(tag_1, lt(calldatasize, 0x04))\n      shr(0xe0, calldataload(0x00))\n      dup1\n      0x0e94ba83\n      eq\n      tag_3\n      jumpi\n      dup1\n      0x473ca96c\n      eq\n      tag_4\n      jumpi\n      dup1\n      0xe6f334d7\n      eq\n      tag_5\n      jumpi\n      jump(tag_2)\n    tag_1:\n      jumpi(tag_2, calldatasize)\n      stop\n    tag_2:\n      0x00\n      dup1\n      revert\n        /* \"contracts/level3.sol\":137:161  ICoinFlip public surface */\n    tag_3:\n      callvalue\n      dup1\n      iszero\n      tag_8\n      jumpi\n      0x00\n      dup1\n      revert\n    tag_8:\n      pop\n      tag_9\n      tag_10\n      jump\t// in\n    tag_9:\n      mload(0x40)\n      tag_11\n      swap2\n      swap1\n      tag_12\n      jump\t// in\n    tag_11:\n      mload(0x40)\n      dup1\n      swap2\n      sub\n      swap1\n      return\n        /* \"contracts/level3.sol\":415:665  function win() external payable {\r... */\n    tag_4:\n      tag_13\n      tag_14\n      jump\t// in\n    tag_13:\n      stop\n        /* \"contracts/level3.sol\":170:200  uint256 public consecutiveWins */\n    tag_5:\n      callvalue\n      dup1\n      iszero\n      tag_15\n      jumpi\n      0x00\n      dup1\n      revert\n    tag_15:\n      pop\n      tag_16\n      tag_17\n      jump\t// in\n    tag_16:\n      mload(0x40)\n      tag_18\n      swap2\n      swap1\n      tag_19\n      jump\t// in\n    tag_18:\n      mload(0x40)\n      dup1\n      swap2\n      sub\n      swap1\n      return\n        /* \"contracts/level3.sol\":137:161  ICoinFlip public surface */\n    tag_10:\n      0x00\n      dup1\n      sload\n      swap1\n      0x0100\n      exp\n      swap1\n      div\n      0xffffffffffffffffffffffffffffffffffffffff\n      and\n      dup2\n      jump\t// out\n        /* \"contracts/level3.sol\":415:665  function win() external payable {\r... */\n    tag_14:\n        /* \"contracts/level3.sol\":458:476  uint256 blockValue */\n      0x00\n        /* \"contracts/level3.sol\":511:512  1 */\n      0x01\n        /* \"contracts/level3.sol\":497:509  block.number */\n      number\n        /* \"contracts/level3.sol\":497:512  block.number -1 */\n      tag_21\n      swap2\n      swap1\n      tag_22\n      jump\t// in\n    tag_21:\n        /* \"contracts/level3.sol\":487:513  blockhash(block.number -1) */\n      blockhash\n        /* \"contracts/level3.sol\":479:514  uint256(blockhash(block.number -1)) */\n      0x00\n      shr\n        /* \"contracts/level3.sol\":458:514  uint256 blockValue = uint256(blockhash(block.number -1)) */\n      swap1\n      pop\n        /* \"contracts/level3.sol\":537:553  uint256 coinFlip */\n      0x00\n        /* \"contracts/level3.sol\":569:575  FACTOR */\n      sload(0x02)\n        /* \"contracts/level3.sol\":556:566  blockValue */\n      dup3\n        /* \"contracts/level3.sol\":556:575  blockValue / FACTOR */\n      tag_23\n      swap2\n      swap1\n      tag_24\n      jump\t// in\n    tag_23:\n        /* \"contracts/level3.sol\":537:575  uint256 coinFlip = blockValue / FACTOR */\n      swap1\n      pop\n        /* \"contracts/level3.sol\":586:595  bool side */\n      0x00\n        /* \"contracts/level3.sol\":610:611  1 */\n      0x01\n        /* \"contracts/level3.sol\":598:606  coinFlip */\n      dup3\n        /* \"contracts/level3.sol\":598:611  coinFlip == 1 */\n      eq\n        /* \"contracts/level3.sol\":598:626  coinFlip == 1 ? true : false */\n      tag_25\n      jumpi\n        /* \"contracts/level3.sol\":621:626  false */\n      0x00\n        /* \"contracts/level3.sol\":598:626  coinFlip == 1 ? true : false */\n      jump(tag_26)\n    tag_25:\n        /* \"contracts/level3.sol\":614:618  true */\n      0x01\n        /* \"contracts/level3.sol\":598:626  coinFlip == 1 ? true : false */\n    tag_26:\n        /* \"contracts/level3.sol\":586:626  bool side = coinFlip == 1 ? true : false */\n      swap1\n      pop\n        /* \"contracts/level3.sol\":639:646  surface */\n      0x00\n      dup1\n      sload\n      swap1\n      0x0100\n      exp\n      swap1\n      div\n      0xffffffffffffffffffffffffffffffffffffffff\n      and\n        /* \"contracts/level3.sol\":639:651  surface.flip */\n      0xffffffffffffffffffffffffffffffffffffffff\n      and\n      0x1d263f67\n        /* \"contracts/level3.sol\":652:656  side */\n      dup3\n        /* \"contracts/level3.sol\":639:657  surface.flip(side) */\n      mload(0x40)\n      dup3\n      0xffffffff\n      and\n      0xe0\n      shl\n      dup2\n      mstore\n      0x04\n      add\n      tag_27\n      swap2\n      swap1\n      tag_28\n      jump\t// in\n    tag_27:\n      0x20\n      mload(0x40)\n      dup1\n      dup4\n      sub\n      dup2\n      0x00\n      dup8\n      dup1\n      extcodesize\n      iszero\n      dup1\n      iszero\n      tag_29\n      jumpi\n      0x00\n      dup1\n      revert\n    tag_29:\n      pop\n      gas\n      call\n      iszero\n      dup1\n      iszero\n      tag_31\n      jumpi\n      returndatasize\n      0x00\n      dup1\n      returndatacopy\n      revert(0x00, returndatasize)\n    tag_31:\n      pop\n      pop\n      pop\n      pop\n      mload(0x40)\n      returndatasize\n      not(0x1f)\n      0x1f\n      dup3\n      add\n      and\n      dup3\n      add\n      dup1\n      0x40\n      mstore\n      pop\n      dup2\n      add\n      swap1\n      tag_32\n      swap2\n      swap1\n      tag_33\n      jump\t// in\n    tag_32:\n      pop\n        /* \"contracts/level3.sol\":447:665  {\r... */\n      pop\n      pop\n      pop\n        /* \"contracts/level3.sol\":415:665  function win() external payable {\r... */\n      jump\t// out\n        /* \"contracts/level3.sol\":170:200  uint256 public consecutiveWins */\n    tag_17:\n      sload(0x01)\n      dup2\n      jump\t// out\n        /* \"#utility.yul\":7:144   */\n    tag_35:\n        /* \"#utility.yul\":61:66   */\n      0x00\n        /* \"#utility.yul\":92:98   */\n      dup2\n        /* \"#utility.yul\":86:99   */\n      mload\n        /* \"#utility.yul\":77:99   */\n      swap1\n      pop\n        /* \"#utility.yul\":108:138   */\n      tag_37\n        /* \"#utility.yul\":132:137   */\n      dup2\n        /* \"#utility.yul\":108:138   */\n      tag_38\n      jump\t// in\n    tag_37:\n        /* \"#utility.yul\":7:144   */\n      swap3\n      swap2\n      pop\n      pop\n      jump\t// out\n        /* \"#utility.yul\":150:495   */\n    tag_33:\n        /* \"#utility.yul\":217:223   */\n      0x00\n        /* \"#utility.yul\":266:268   */\n      0x20\n        /* \"#utility.yul\":254:263   */\n      dup3\n        /* \"#utility.yul\":245:252   */\n      dup5\n        /* \"#utility.yul\":241:264   */\n      sub\n        /* \"#utility.yul\":237:269   */\n      slt\n        /* \"#utility.yul\":234:353   */\n      iszero\n      tag_40\n      jumpi\n        /* \"#utility.yul\":272:351   */\n      tag_41\n      tag_42\n      jump\t// in\n    tag_41:\n        /* \"#utility.yul\":234:353   */\n    tag_40:\n        /* \"#utility.yul\":392:393   */\n      0x00\n        /* \"#utility.yul\":417:478   */\n      tag_43\n        /* \"#utility.yul\":470:477   */\n      dup5\n        /* \"#utility.yul\":461:467   */\n      dup3\n        /* \"#utility.yul\":450:459   */\n      dup6\n        /* \"#utility.yul\":446:468   */\n      add\n        /* \"#utility.yul\":417:478   */\n      tag_35\n      jump\t// in\n    tag_43:\n        /* \"#utility.yul\":407:478   */\n      swap2\n      pop\n        /* \"#utility.yul\":363:488   */\n      pop\n        /* \"#utility.yul\":150:495   */\n      swap3\n      swap2\n      pop\n      pop\n      jump\t// out\n        /* \"#utility.yul\":501:610   */\n    tag_44:\n        /* \"#utility.yul\":582:603   */\n      tag_46\n        /* \"#utility.yul\":597:602   */\n      dup2\n        /* \"#utility.yul\":582:603   */\n      tag_47\n      jump\t// in\n    tag_46:\n        /* \"#utility.yul\":577:580   */\n      dup3\n        /* \"#utility.yul\":570:604   */\n      mstore\n        /* \"#utility.yul\":501:610   */\n      pop\n      pop\n      jump\t// out\n        /* \"#utility.yul\":616:777   */\n    tag_48:\n        /* \"#utility.yul\":718:770   */\n      tag_50\n        /* \"#utility.yul\":764:769   */\n      dup2\n        /* \"#utility.yul\":718:770   */\n      tag_51\n      jump\t// in\n    tag_50:\n        /* \"#utility.yul\":713:716   */\n      dup3\n        /* \"#utility.yul\":706:771   */\n      mstore\n        /* \"#utility.yul\":616:777   */\n      pop\n      pop\n      jump\t// out\n        /* \"#utility.yul\":783:901   */\n    tag_52:\n        /* \"#utility.yul\":870:894   */\n      tag_54\n        /* \"#utility.yul\":888:893   */\n      dup2\n        /* \"#utility.yul\":870:894   */\n      tag_55\n      jump\t// in\n    tag_54:\n        /* \"#utility.yul\":865:868   */\n      dup3\n        /* \"#utility.yul\":858:895   */\n      mstore\n        /* \"#utility.yul\":783:901   */\n      pop\n      pop\n      jump\t// out\n        /* \"#utility.yul\":907:1117   */\n    tag_28:\n        /* \"#utility.yul\":994:998   */\n      0x00\n        /* \"#utility.yul\":1032:1034   */\n      0x20\n        /* \"#utility.yul\":1021:1030   */\n      dup3\n        /* \"#utility.yul\":1017:1035   */\n      add\n        /* \"#utility.yul\":1009:1035   */\n      swap1\n      pop\n        /* \"#utility.yul\":1045:1110   */\n      tag_57\n        /* \"#utility.yul\":1107:1108   */\n      0x00\n        /* \"#utility.yul\":1096:1105   */\n      dup4\n        /* \"#utility.yul\":1092:1109   */\n      add\n        /* \"#utility.yul\":1083:1089   */\n      dup5\n        /* \"#utility.yul\":1045:1110   */\n      tag_44\n      jump\t// in\n    tag_57:\n        /* \"#utility.yul\":907:1117   */\n      swap3\n      swap2\n      pop\n      pop\n      jump\t// out\n        /* \"#utility.yul\":1123:1375   */\n    tag_12:\n        /* \"#utility.yul\":1231:1235   */\n      0x00\n        /* \"#utility.yul\":1269:1271   */\n      0x20\n        /* \"#utility.yul\":1258:1267   */\n      dup3\n        /* \"#utility.yul\":1254:1272   */\n      add\n        /* \"#utility.yul\":1246:1272   */\n      swap1\n      pop\n        /* \"#utility.yul\":1282:1368   */\n      tag_59\n        /* \"#utility.yul\":1365:1366   */\n      0x00\n        /* \"#utility.yul\":1354:1363   */\n      dup4\n        /* \"#utility.yul\":1350:1367   */\n      add\n        /* \"#utility.yul\":1341:1347   */\n      dup5\n        /* \"#utility.yul\":1282:1368   */\n      tag_48\n      jump\t// in\n    tag_59:\n        /* \"#utility.yul\":1123:1375   */\n      swap3\n      swap2\n      pop\n      pop\n      jump\t// out\n        /* \"#utility.yul\":1381:1603   */\n    tag_19:\n        /* \"#utility.yul\":1474:1478   */\n      0x00\n        /* \"#utility.yul\":1512:1514   */\n      0x20\n        /* \"#utility.yul\":1501:1510   */\n      dup3\n        /* \"#utility.yul\":1497:1515   */\n      add\n        /* \"#utility.yul\":1489:1515   */\n      swap1\n      pop\n        /* \"#utility.yul\":1525:1596   */\n      tag_61\n        /* \"#utility.yul\":1593:1594   */\n      0x00\n        /* \"#utility.yul\":1582:1591   */\n      dup4\n        /* \"#utility.yul\":1578:1595   */\n      add\n        /* \"#utility.yul\":1569:1575   */\n      dup5\n        /* \"#utility.yul\":1525:1596   */\n      tag_52\n      jump\t// in\n    tag_61:\n        /* \"#utility.yul\":1381:1603   */\n      swap3\n      swap2\n      pop\n      pop\n      jump\t// out\n        /* \"#utility.yul\":1690:1875   */\n    tag_24:\n        /* \"#utility.yul\":1730:1731   */\n      0x00\n        /* \"#utility.yul\":1747:1767   */\n      tag_65\n        /* \"#utility.yul\":1765:1766   */\n      dup3\n        /* \"#utility.yul\":1747:1767   */\n      tag_55\n      jump\t// in\n    tag_65:\n        /* \"#utility.yul\":1742:1767   */\n      swap2\n      pop\n        /* \"#utility.yul\":1781:1801   */\n      tag_66\n        /* \"#utility.yul\":1799:1800   */\n      dup4\n        /* \"#utility.yul\":1781:1801   */\n      tag_55\n      jump\t// in\n    tag_66:\n        /* \"#utility.yul\":1776:1801   */\n      swap3\n      pop\n        /* \"#utility.yul\":1820:1821   */\n      dup3\n        /* \"#utility.yul\":1810:1845   */\n      tag_67\n      jumpi\n        /* \"#utility.yul\":1825:1843   */\n      tag_68\n      tag_69\n      jump\t// in\n    tag_68:\n        /* \"#utility.yul\":1810:1845   */\n    tag_67:\n        /* \"#utility.yul\":1867:1868   */\n      dup3\n        /* \"#utility.yul\":1864:1865   */\n      dup3\n        /* \"#utility.yul\":1860:1869   */\n      div\n        /* \"#utility.yul\":1855:1869   */\n      swap1\n      pop\n        /* \"#utility.yul\":1690:1875   */\n      swap3\n      swap2\n      pop\n      pop\n      jump\t// out\n        /* \"#utility.yul\":1881:2072   */\n    tag_22:\n        /* \"#utility.yul\":1921:1925   */\n      0x00\n        /* \"#utility.yul\":1941:1961   */\n      tag_71\n        /* \"#utility.yul\":1959:1960   */\n      dup3\n        /* \"#utility.yul\":1941:1961   */\n      tag_55\n      jump\t// in\n    tag_71:\n        /* \"#utility.yul\":1936:1961   */\n      swap2\n      pop\n        /* \"#utility.yul\":1975:1995   */\n      tag_72\n        /* \"#utility.yul\":1993:1994   */\n      dup4\n        /* \"#utility.yul\":1975:1995   */\n      tag_55\n      jump\t// in\n    tag_72:\n        /* \"#utility.yul\":1970:1995   */\n      swap3\n      pop\n        /* \"#utility.yul\":2014:2015   */\n      dup3\n        /* \"#utility.yul\":2011:2012   */\n      dup3\n        /* \"#utility.yul\":2008:2016   */\n      lt\n        /* \"#utility.yul\":2005:2039   */\n      iszero\n      tag_73\n      jumpi\n        /* \"#utility.yul\":2019:2037   */\n      tag_74\n      tag_75\n      jump\t// in\n    tag_74:\n        /* \"#utility.yul\":2005:2039   */\n    tag_73:\n        /* \"#utility.yul\":2064:2065   */\n      dup3\n        /* \"#utility.yul\":2061:2062   */\n      dup3\n        /* \"#utility.yul\":2057:2066   */\n      sub\n        /* \"#utility.yul\":2049:2066   */\n      swap1\n      pop\n        /* \"#utility.yul\":1881:2072   */\n      swap3\n      swap2\n      pop\n      pop\n      jump\t// out\n        /* \"#utility.yul\":2078:2168   */\n    tag_47:\n        /* \"#utility.yul\":2112:2119   */\n      0x00\n        /* \"#utility.yul\":2155:2160   */\n      dup2\n        /* \"#utility.yul\":2148:2161   */\n      iszero\n        /* \"#utility.yul\":2141:2162   */\n      iszero\n        /* \"#utility.yul\":2130:2162   */\n      swap1\n      pop\n        /* \"#utility.yul\":2078:2168   */\n      swap2\n      swap1\n      pop\n      jump\t// out\n        /* \"#utility.yul\":2174:2300   */\n    tag_77:\n        /* \"#utility.yul\":2211:2218   */\n      0x00\n        /* \"#utility.yul\":2251:2293   */\n      0xffffffffffffffffffffffffffffffffffffffff\n        /* \"#utility.yul\":2244:2249   */\n      dup3\n        /* \"#utility.yul\":2240:2294   */\n      and\n        /* \"#utility.yul\":2229:2294   */\n      swap1\n      pop\n        /* \"#utility.yul\":2174:2300   */\n      swap2\n      swap1\n      pop\n      jump\t// out\n        /* \"#utility.yul\":2306:2383   */\n    tag_55:\n        /* \"#utility.yul\":2343:2350   */\n      0x00\n        /* \"#utility.yul\":2372:2377   */\n      dup2\n        /* \"#utility.yul\":2361:2377   */\n      swap1\n      pop\n        /* \"#utility.yul\":2306:2383   */\n      swap2\n      swap1\n      pop\n      jump\t// out\n        /* \"#utility.yul\":2389:2530   */\n    tag_51:\n        /* \"#utility.yul\":2454:2463   */\n      0x00\n        /* \"#utility.yul\":2487:2524   */\n      tag_81\n        /* \"#utility.yul\":2518:2523   */\n      dup3\n        /* \"#utility.yul\":2487:2524   */\n      tag_82\n      jump\t// in\n    tag_81:\n        /* \"#utility.yul\":2474:2524   */\n      swap1\n      pop\n        /* \"#utility.yul\":2389:2530   */\n      swap2\n      swap1\n      pop\n      jump\t// out\n        /* \"#utility.yul\":2536:2662   */\n    tag_82:\n        /* \"#utility.yul\":2586:2595   */\n      0x00\n        /* \"#utility.yul\":2619:2656   */\n      tag_84\n        /* \"#utility.yul\":2650:2655   */\n      dup3\n        /* \"#utility.yul\":2619:2656   */\n      tag_85\n      jump\t// in\n    tag_84:\n        /* \"#utility.yul\":2606:2656   */\n      swap1\n      pop\n        /* \"#utility.yul\":2536:2662   */\n      swap2\n      swap1\n      pop\n      jump\t// out\n        /* \"#utility.yul\":2668:2781   */\n    tag_85:\n        /* \"#utility.yul\":2718:2727   */\n      0x00\n        /* \"#utility.yul\":2751:2775   */\n      tag_87\n        /* \"#utility.yul\":2769:2774   */\n      dup3\n        /* \"#utility.yul\":2751:2775   */\n      tag_77\n      jump\t// in\n    tag_87:\n        /* \"#utility.yul\":2738:2775   */\n      swap1\n      pop\n        /* \"#utility.yul\":2668:2781   */\n      swap2\n      swap1\n      pop\n      jump\t// out\n        /* \"#utility.yul\":2787:2967   */\n    tag_75:\n        /* \"#utility.yul\":2835:2912   */\n      0x4e487b7100000000000000000000000000000000000000000000000000000000\n        /* \"#utility.yul\":2832:2833   */\n      0x00\n        /* \"#utility.yul\":2825:2913   */\n      mstore\n        /* \"#utility.yul\":2932:2936   */\n      0x11\n        /* \"#utility.yul\":2929:2930   */\n      0x04\n        /* \"#utility.yul\":2922:2937   */\n      mstore\n        /* \"#utility.yul\":2956:2960   */\n      0x24\n        /* \"#utility.yul\":2953:2954   */\n      0x00\n        /* \"#utility.yul\":2946:2961   */\n      revert\n        /* \"#utility.yul\":2973:3153   */\n    tag_69:\n        /* \"#utility.yul\":3021:3098   */\n      0x4e487b7100000000000000000000000000000000000000000000000000000000\n        /* \"#utility.yul\":3018:3019   */\n      0x00\n        /* \"#utility.yul\":3011:3099   */\n      mstore\n        /* \"#utility.yul\":3118:3122   */\n      0x12\n        /* \"#utility.yul\":3115:3116   */\n      0x04\n        /* \"#utility.yul\":3108:3123   */\n      mstore\n        /* \"#utility.yul\":3142:3146   */\n      0x24\n        /* \"#utility.yul\":3139:3140   */\n      0x00\n        /* \"#utility.yul\":3132:3147   */\n      revert\n        /* \"#utility.yul\":3282:3399   */\n    tag_42:\n        /* \"#utility.yul\":3391:3392   */\n      0x00\n        /* \"#utility.yul\":3388:3389   */\n      dup1\n        /* \"#utility.yul\":3381:3393   */\n      revert\n        /* \"#utility.yul\":3405:3521   */\n    tag_38:\n        /* \"#utility.yul\":3475:3496   */\n      tag_94\n        /* \"#utility.yul\":3490:3495   */\n      dup2\n        /* \"#utility.yul\":3475:3496   */\n      tag_47\n      jump\t// in\n    tag_94:\n        /* \"#utility.yul\":3468:3473   */\n      dup2\n        /* \"#utility.yul\":3465:3497   */\n      eq\n        /* \"#utility.yul\":3455:3515   */\n      tag_95\n      jumpi\n        /* \"#utility.yul\":3511:3512   */\n      0x00\n        /* \"#utility.yul\":3508:3509   */\n      dup1\n        /* \"#utility.yul\":3501:3513   */\n      revert\n        /* \"#utility.yul\":3455:3515   */\n    tag_95:\n        /* \"#utility.yul\":3405:3521   */\n      pop\n      jump\t// out\n\n    auxdata: 0xa26469706673582212200ed9e5e13b2dd62b7886692a25a14bd9f6b723137ecd2b7dbbb6d560e4dc209964736f6c63430008070033\n}\n",
				"bytecode": {
					"linkReferences": {},
					"object": "60806040527f800000000000000000000000000000000000000000000000000000000000000060025534801561003457600080fd5b507396e35b7e384d933450272f1c7b34a169b0763b1c6000806101000a81548173ffffffffffffffffffffffffffffffffffffffff021916908373ffffffffffffffffffffffffffffffffffffffff1602179055506103fd806100986000396000f3fe6080604052600436106100385760003560e01c80630e94ba8314610044578063473ca96c1461006f578063e6f334d7146100795761003f565b3661003f57005b600080fd5b34801561005057600080fd5b506100596100a4565b6040516100669190610246565b60405180910390f35b6100776100c8565b005b34801561008557600080fd5b5061008e6101b6565b60405161009b9190610261565b60405180910390f35b60008054906101000a900473ffffffffffffffffffffffffffffffffffffffff1681565b60006001436100d791906102ad565b4060001c90506000600254826100ed919061027c565b9050600060018214610100576000610103565b60015b905060008054906101000a900473ffffffffffffffffffffffffffffffffffffffff1673ffffffffffffffffffffffffffffffffffffffff16631d263f67826040518263ffffffff1660e01b815260040161015e919061022b565b602060405180830381600087803b15801561017857600080fd5b505af115801561018c573d6000803e3d6000fd5b505050506040513d601f19601f820116820180604052508101906101b091906101d1565b50505050565b60015481565b6000815190506101cb816103b0565b92915050565b6000602082840312156101e7576101e66103ab565b5b60006101f5848285016101bc565b91505092915050565b610207816102e1565b82525050565b61021681610317565b82525050565b6102258161030d565b82525050565b600060208201905061024060008301846101fe565b92915050565b600060208201905061025b600083018461020d565b92915050565b6000602082019050610276600083018461021c565b92915050565b60006102878261030d565b91506102928361030d565b9250826102a2576102a161037c565b5b828204905092915050565b60006102b88261030d565b91506102c38361030d565b9250828210156102d6576102d561034d565b5b828203905092915050565b60008115159050919050565b600073ffffffffffffffffffffffffffffffffffffffff82169050919050565b6000819050919050565b600061032282610329565b9050919050565b60006103348261033b565b9050919050565b6000610346826102ed565b9050919050565b7f4e487b7100000000000000000000000000000000000000000000000000000000600052601160045260246000fd5b7f4e487b7100000000000000000000000000000000000000000000000000000000600052601260045260246000fd5b600080fd5b6103b9816102e1565b81146103c457600080fd5b5056fea26469706673582212200ed9e5e13b2dd62b7886692a25a14bd9f6b723137ecd2b7dbbb6d560e4dc209964736f6c63430008070033",
					"opcodes": "PUSH1 0x80 PUSH1 0x40 MSTORE PUSH32 0x8000000000000000000000000000000000000000000000000000000000000000 PUSH1 0x2 SSTORE CALLVALUE DUP1 ISZERO PUSH2 0x34 JUMPI PUSH1 0x0 DUP1 REVERT JUMPDEST POP PUSH20 0x96E35B7E384D933450272F1C7B34A169B0763B1C PUSH1 0x0 DUP1 PUSH2 0x100 EXP DUP2 SLOAD DUP2 PUSH20 0xFFFFFFFFFFFFFFFFFFFFFFFFFFFFFFFFFFFFFFFF MUL NOT AND SWAP1 DUP4 PUSH20 0xFFFFFFFFFFFFFFFFFFFFFFFFFFFFFFFFFFFFFFFF AND MUL OR SWAP1 SSTORE POP PUSH2 0x3FD DUP1 PUSH2 0x98 PUSH1 0x0 CODECOPY PUSH1 0x0 RETURN INVALID PUSH1 0x80 PUSH1 0x40 MSTORE PUSH1 0x4 CALLDATASIZE LT PUSH2 0x38 JUMPI PUSH1 0x0 CALLDATALOAD PUSH1 0xE0 SHR DUP1 PUSH4 0xE94BA83 EQ PUSH2 0x44 JUMPI DUP1 PUSH4 0x473CA96C EQ PUSH2 0x6F JUMPI DUP1 PUSH4 0xE6F334D7 EQ PUSH2 0x79 JUMPI PUSH2 0x3F JUMP JUMPDEST CALLDATASIZE PUSH2 0x3F JUMPI STOP JUMPDEST PUSH1 0x0 DUP1 REVERT JUMPDEST CALLVALUE DUP1 ISZERO PUSH2 0x50 JUMPI PUSH1 0x0 DUP1 REVERT JUMPDEST POP PUSH2 0x59 PUSH2 0xA4 JUMP JUMPDEST PUSH1 0x40 MLOAD PUSH2 0x66 SWAP2 SWAP1 PUSH2 0x246 JUMP JUMPDEST PUSH1 0x40 MLOAD DUP1 SWAP2 SUB SWAP1 RETURN JUMPDEST PUSH2 0x77 PUSH2 0xC8 JUMP JUMPDEST STOP JUMPDEST CALLVALUE DUP1 ISZERO PUSH2 0x85 JUMPI PUSH1 0x0 DUP1 REVERT JUMPDEST POP PUSH2 0x8E PUSH2 0x1B6 JUMP JUMPDEST PUSH1 0x40 MLOAD PUSH2 0x9B SWAP2 SWAP1 PUSH2 0x261 JUMP JUMPDEST PUSH1 0x40 MLOAD DUP1 SWAP2 SUB SWAP1 RETURN JUMPDEST PUSH1 0x0 DUP1 SLOAD SWAP1 PUSH2 0x100 EXP SWAP1 DIV PUSH20 0xFFFFFFFFFFFFFFFFFFFFFFFFFFFFFFFFFFFFFFFF AND DUP2 JUMP JUMPDEST PUSH1 0x0 PUSH1 0x1 NUMBER PUSH2 0xD7 SWAP2 SWAP1 PUSH2 0x2AD JUMP JUMPDEST BLOCKHASH PUSH1 0x0 SHR SWAP1 POP PUSH1 0x0 PUSH1 0x2 SLOAD DUP3 PUSH2 0xED SWAP2 SWAP1 PUSH2 0x27C JUMP JUMPDEST SWAP1 POP PUSH1 0x0 PUSH1 0x1 DUP3 EQ PUSH2 0x100 JUMPI PUSH1 0x0 PUSH2 0x103 JUMP JUMPDEST PUSH1 0x1 JUMPDEST SWAP1 POP PUSH1 0x0 DUP1 SLOAD SWAP1 PUSH2 0x100 EXP SWAP1 DIV PUSH20 0xFFFFFFFFFFFFFFFFFFFFFFFFFFFFFFFFFFFFFFFF AND PUSH20 0xFFFFFFFFFFFFFFFFFFFFFFFFFFFFFFFFFFFFFFFF AND PUSH4 0x1D263F67 DUP3 PUSH1 0x40 MLOAD DUP3 PUSH4 0xFFFFFFFF AND PUSH1 0xE0 SHL DUP2 MSTORE PUSH1 0x4 ADD PUSH2 0x15E SWAP2 SWAP1 PUSH2 0x22B JUMP JUMPDEST PUSH1 0x20 PUSH1 0x40 MLOAD DUP1 DUP4 SUB DUP2 PUSH1 0x0 DUP8 DUP1 EXTCODESIZE ISZERO DUP1 ISZERO PUSH2 0x178 JUMPI PUSH1 0x0 DUP1 REVERT JUMPDEST POP GAS CALL ISZERO DUP1 ISZERO PUSH2 0x18C JUMPI RETURNDATASIZE PUSH1 0x0 DUP1 RETURNDATACOPY RETURNDATASIZE PUSH1 0x0 REVERT JUMPDEST POP POP POP POP PUSH1 0x40 MLOAD RETURNDATASIZE PUSH1 0x1F NOT PUSH1 0x1F DUP3 ADD AND DUP3 ADD DUP1 PUSH1 0x40 MSTORE POP DUP2 ADD SWAP1 PUSH2 0x1B0 SWAP2 SWAP1 PUSH2 0x1D1 JUMP JUMPDEST POP POP POP POP JUMP JUMPDEST PUSH1 0x1 SLOAD DUP2 JUMP JUMPDEST PUSH1 0x0 DUP2 MLOAD SWAP1 POP PUSH2 0x1CB DUP2 PUSH2 0x3B0 JUMP JUMPDEST SWAP3 SWAP2 POP POP JUMP JUMPDEST PUSH1 0x0 PUSH1 0x20 DUP3 DUP5 SUB SLT ISZERO PUSH2 0x1E7 JUMPI PUSH2 0x1E6 PUSH2 0x3AB JUMP JUMPDEST JUMPDEST PUSH1 0x0 PUSH2 0x1F5 DUP5 DUP3 DUP6 ADD PUSH2 0x1BC JUMP JUMPDEST SWAP2 POP POP SWAP3 SWAP2 POP POP JUMP JUMPDEST PUSH2 0x207 DUP2 PUSH2 0x2E1 JUMP JUMPDEST DUP3 MSTORE POP POP JUMP JUMPDEST PUSH2 0x216 DUP2 PUSH2 0x317 JUMP JUMPDEST DUP3 MSTORE POP POP JUMP JUMPDEST PUSH2 0x225 DUP2 PUSH2 0x30D JUMP JUMPDEST DUP3 MSTORE POP POP JUMP JUMPDEST PUSH1 0x0 PUSH1 0x20 DUP3 ADD SWAP1 POP PUSH2 0x240 PUSH1 0x0 DUP4 ADD DUP5 PUSH2 0x1FE JUMP JUMPDEST SWAP3 SWAP2 POP POP JUMP JUMPDEST PUSH1 0x0 PUSH1 0x20 DUP3 ADD SWAP1 POP PUSH2 0x25B PUSH1 0x0 DUP4 ADD DUP5 PUSH2 0x20D JUMP JUMPDEST SWAP3 SWAP2 POP POP JUMP JUMPDEST PUSH1 0x0 PUSH1 0x20 DUP3 ADD SWAP1 POP PUSH2 0x276 PUSH1 0x0 DUP4 ADD DUP5 PUSH2 0x21C JUMP JUMPDEST SWAP3 SWAP2 POP POP JUMP JUMPDEST PUSH1 0x0 PUSH2 0x287 DUP3 PUSH2 0x30D JUMP JUMPDEST SWAP2 POP PUSH2 0x292 DUP4 PUSH2 0x30D JUMP JUMPDEST SWAP3 POP DUP3 PUSH2 0x2A2 JUMPI PUSH2 0x2A1 PUSH2 0x37C JUMP JUMPDEST JUMPDEST DUP3 DUP3 DIV SWAP1 POP SWAP3 SWAP2 POP POP JUMP JUMPDEST PUSH1 0x0 PUSH2 0x2B8 DUP3 PUSH2 0x30D JUMP JUMPDEST SWAP2 POP PUSH2 0x2C3 DUP4 PUSH2 0x30D JUMP JUMPDEST SWAP3 POP DUP3 DUP3 LT ISZERO PUSH2 0x2D6 JUMPI PUSH2 0x2D5 PUSH2 0x34D JUMP JUMPDEST JUMPDEST DUP3 DUP3 SUB SWAP1 POP SWAP3 SWAP2 POP POP JUMP JUMPDEST PUSH1 0x0 DUP2 ISZERO ISZERO SWAP1 POP SWAP2 SWAP1 POP JUMP JUMPDEST PUSH1 0x0 PUSH20 0xFFFFFFFFFFFFFFFFFFFFFFFFFFFFFFFFFFFFFFFF DUP3 AND SWAP1 POP SWAP2 SWAP1 POP JUMP JUMPDEST PUSH1 0x0 DUP2 SWAP1 POP SWAP2 SWAP1 POP JUMP JUMPDEST PUSH1 0x0 PUSH2 0x322 DUP3 PUSH2 0x329 JUMP JUMPDEST SWAP1 POP SWAP2 SWAP1 POP JUMP JUMPDEST PUSH1 0x0 PUSH2 0x334 DUP3 PUSH2 0x33B JUMP JUMPDEST SWAP1 POP SWAP2 SWAP1 POP JUMP JUMPDEST PUSH1 0x0 PUSH2 0x346 DUP3 PUSH2 0x2ED JUMP JUMPDEST SWAP1 POP SWAP2 SWAP1 POP JUMP JUMPDEST PUSH32 0x4E487B7100000000000000000000000000000000000000000000000000000000 PUSH1 0x0 MSTORE PUSH1 0x11 PUSH1 0x4 MSTORE PUSH1 0x24 PUSH1 0x0 REVERT JUMPDEST PUSH32 0x4E487B7100000000000000000000000000000000000000000000000000000000 PUSH1 0x0 MSTORE PUSH1 0x12 PUSH1 0x4 MSTORE PUSH1 0x24 PUSH1 0x0 REVERT JUMPDEST PUSH1 0x0 DUP1 REVERT JUMPDEST PUSH2 0x3B9 DUP2 PUSH2 0x2E1 JUMP JUMPDEST DUP2 EQ PUSH2 0x3C4 JUMPI PUSH1 0x0 DUP1 REVERT JUMPDEST POP JUMP INVALID LOG2 PUSH5 0x6970667358 0x22 SLT KECCAK256 0xE 0xD9 0xE5 0xE1 EXTCODESIZE 0x2D 0xD6 0x2B PUSH25 0x86692A25A14BD9F6B723137ECD2B7DBBB6D560E4DC20996473 PUSH16 0x6C634300080700330000000000000000 "
				},
				"gasEstimates": {
					"creation": {
						"codeDepositCost": "204200",
						"executionCost": "46618",
						"totalCost": "250818"
					},
					"external": {
						"consecutiveWins()": "2451",
						"surface()": "2575",
						"win()": "infinite"
					}
				},
				"methodIdentifiers": {
					"consecutiveWins()": "e6f334d7",
					"surface()": "0e94ba83",
					"win()": "473ca96c"
				}
			},
			"userdoc": {
				"kind": "user",
				"methods": {},
				"version": 1
			}
		}
	}
}